:100000000C9462000C948A000C948A000C948A0070
:100010000C948A000C948A000C948A000C948A0038
:100020000C948A000C948A000C948A000C948A0028
:100030000C948A000C948A000C948A000C948A0018
:100040000C94470F0C948A000C948A000C948A003C
:100050000C948A000C948A000C948A000C948A00F8
:100060000C948A000C948A000000000024002700F1
:100070002A0000000000250028002B0000000000DE
:1000800023002600290004040404040404040202DA
:100090000202020203030303030301020408102007
:1000A0004080010204081020010204081020000012
:1000B0000007000201000003040600000000000029
:1000C0000000130111241FBECFEFD8E0DEBFCDBF6B
:1000D00012E0A0E0B1E0ECE0FAE202C005900D927F
:1000E000AE32B107D9F712E0AEE2B2E001C01D9224
:1000F000AD3AB107E1F710E0C4ECD0E004C02297BC
:10010000FE010E940015C23CD107C9F70E9495115B
:100110000C9404150C9400008F929F92AF92BF92A2
:10012000CF92DF92EF92FF920F931F93CF93DF93C3
:10013000EB01BC01CC0FDD1FFE01EA5BFD4FC0806F
:10014000D1806C157D0528F4C601861B970BBC0178
:100150005CC0FE01E65AFD4F8080918068157905EC
:1001600060F46C197D0980E090E00E948A137B01A5
:100170008C018C189D08B40136C0FE01E05BFD4F78
:10018000A080B1806A157B0560F46819790980E068
:1001900090E00E948A137B018C01A818B908B50170
:1001A00022C0FE01EC59FD4FC080D1806C157D0549
:1001B00060F46A197B0980E090E00E948A137B0159
:1001C0008C01CA18DB08B6010EC06C197D0980E0ED
:1001D00090E00E948A137B018C01C259DD4F688137
:1001E00079816C197D0980E090E00E948A139B015F
:1001F000AC01C801B7010E94F11220E030E048ECE8
:1002000052E40E9418140E945913CB01DF91CF9140
:100210001F910F91FF90EF90DF90CF90BF90AF9024
:100220009F908F900895CF92EF920F9382E892E083
:1002300064E045E023E002E0EE24E394CC240E9455
:10024000FB0E0F91EF90CF900895CF93DF93EC01C9
:100250006115710519F420E030E00FC0DB010D904D
:100260000020E9F71197A61BB70BE881F9810280FE
:10027000F381E02DAD0109959C01C901DF91CF917A
:1002800008958EE00E942D109093310280933002E9
:100290008FE00E942D10909333028093320280E110
:1002A0000E942D10909335028093340281E10E94C8
:1002B0002D10909337028093360282E10E942D1018
:1002C000909339028093380208950E944101209151
:1002D00030023091310280914602909147022817F6
:1002E000390718F48EE490E020C080915A02909172
:1002F0005B022817390718F486E590E016C0809154
:100300005002909151022817390718F487E490E0C1
:100310000CC080916402909165022817390718F08B
:1003200082E490E002C082E590E09093980280938E
:1003300097022091320230913302809148029091CD
:1003400049022817390718F48EE490E020C0809104
:100350005C0290915D022817390718F486E590E059
:1003600016C080915202909153022817390718F451
:1003700087E490E00CC08091660290916702281794
:10038000390718F082E490E002C082E590E0909393
:100390009A02809399022091340230913502809123
:1003A0004A0290914B022817390718F48EE490E026
:1003B00020C080915E0290915F022817390718F4DF
:1003C00086E590E016C0809154029091550228175E
:1003D000390718F487E490E00CC08091680290918E
:1003E00069022817390718F082E490E002C082E51C
:1003F00090E090939C0280939B0220913602309172
:10040000370280914C0290914D022817390718F459
:100410008EE490E020C080916002909161022817E4
:10042000390718F486E590E016C080915602909145
:1004300057022817390718F487E490E00CC0809120
:100440006A0290916B022817390718F082E490E055
:1004500002C082E590E090939E0280939D022091DD
:1004600038023091390280914E0290914F02281744
:10047000390718F48EE490E020C0809162029091D8
:1004800063022817390718F486E590E016C08091BA
:100490005802909159022817390718F487E490E020
:1004A0000CC080916C0290916D022817390718F0EA
:1004B00082E490E002C082E590E09093A0028093F5
:1004C0009F020895EF92FF920F931F93CF93DF93B4
:1004D000C0E0D0E0880F991F20E3E22E22E0F22E48
:1004E000E80EF91E8C010A5B1D4F0E944101F701C5
:1004F00020813181C217D30708F4E901F801808116
:1005000091812817390788F7CE01DF91CF911F918C
:100510000F91FF90EF9008950F931F930E94410158
:1005200002E812E0C80160E041E00E940E0E609116
:10053000340270913502C8014AE050E00E94411235
:10054000C80160E071E00E94250160914A0270914B
:100550004B02C8014AE050E00E944112C80164E029
:1005600071E00E9425011F910F9108950F931F9331
:10057000CF93DF9310923B0210923A0210923D0209
:1005800010923C0210923F0210923E0210924102E1
:100590001092400210924302109242020E948C027A
:1005A000CAE3D2E000E010E040E050E0FA01E05D94
:1005B000FD4F60817181888199818617970710F4BA
:1005C00079836883DA01AA5BBD4FFA01E858FD4FD1
:1005D00020813181369527958D919C91821B930BBB
:1005E0008617970710F401E010E04E5F5F4F2296E8
:1005F0004A305105D9F610934502009344020E94F7
:100600008C028091440290914502019749F2DF915A
:10061000CF911F910F9108950F931F93CF93DF9365
:1006200082E892E060E040E00E940E0E8EE00E94C0
:100630002D10182F092F282F392F809146029091C5
:1006400047022817390718F4CEE4D0E020C0809183
:100650005A0290915B022817390718F4C6E5D0E0DA
:1006600016C080915002909151022817390718F452
:10067000C7E4D0E00CC08091640290916502281715
:10068000390718F0C2E4D0E002C0C2E5D0E082E849
:1006900092E067E071E00E94250182E892E06C2F11
:1006A0000E94FA0D812F902F60E070E00E948C0074
:1006B000BC0182E892E04AE050E00E94921282E897
:1006C00092E069E071E00E9425018FE00E942D1008
:1006D000182F092F282F392F809148029091490215
:1006E0002817390718F4CEE4D0E020C080915C02CE
:1006F00090915D022817390718F4C6E5D0E016C0BE
:1007000080915202909153022817390718F4C7E4D8
:10071000D0E00CC0809166029091670228173907DB
:1007200018F0C2E4D0E002C0C2E5D0E082E892E076
:100730006BE071E00E94250182E892E06C2F0E943C
:10074000FA0D812F902F61E070E00E948C00BC01B7
:1007500082E892E04AE050E00E94921282E892E041
:1007600069E071E00E94250180E10E942D10182FA0
:10077000092F282F392F80914A0290914B02281778
:10078000390718F4CEE4D0E020C080915E02909149
:100790005F022817390718F4C6E5D0E016C080912B
:1007A0005402909155022817390718F4C7E4D0E095
:1007B0000CC080916802909169022817390718F0DF
:1007C000C2E4D0E002C0C2E5D0E082E892E06DE091
:1007D00071E00E94250182E892E06C2F0E94FA0DE0
:1007E000812F902F62E070E00E948C00BC0182E8B3
:1007F00092E04AE050E00E94921282E892E069E0C2
:1008000071E00E94250181E10E942D10182F092F0F
:10081000282F392F80914C0290914D0228173907CB
:1008200018F4CEE4D0E020C0809160029091610283
:100830002817390718F4C6E5D0E016C08091560293
:10084000909157022817390718F4C7E4D0E00CC07C
:1008500080916A0290916B022817390718F0C2E460
:10086000D0E002C0C2E5D0E082E892E060E041E082
:100870000E940E0E82E892E06FE071E00E94250176
:1008800082E892E06C2F0E94FA0D812F902F63E096
:1008900070E00E948C00BC0182E892E04AE050E0E7
:1008A0000E94921282E892E069E071E00E942501C4
:1008B00082E10E942D10182F092F282F392F8091A7
:1008C0004E0290914F022817390718F4CEE4D0E079
:1008D00020C080916202909163022817390718F4B2
:1008E000C6E5D0E016C080915802909159022817B1
:1008F000390718F4C7E4D0E00CC080916C029091E5
:100900006D022817390718F0C2E4D0E002C0C2E532
:10091000D0E082E892E061E171E00E94250182E886
:1009200092E06C2F0E94FA0D812F902F64E070E00E
:100930000E948C00BC0182E892E04AE050E00E94F4
:10094000921282E892E069E071E00E942501DF9155
:10095000CF911F910F910895CF92DF92EF92FF9266
:100960000F931F93CF93DF9366E4C62E62E0D62EDB
:100970008601C0E1D0E083EA92E0BE010E94340F1C
:10098000F8018083118221960E5F1F4FC531D1057A
:1009900091F755E1E52EF12CF6010081118183EAF2
:1009A00092E0B7010E94340FD82FC0E00C0F1D1F3A
:1009B000F601019311936F010894E11CF11CF0E51D
:1009C000CF16F2E0DF0641F74AE5C42E42E0D42E0E
:1009D0008601C0E2D0E083EA92E0BE010E94340FBB
:1009E000F8018083118221960E5F1F4FC532D10519
:1009F00091F735E2E32EF12CF6010081118183EAB3
:100A000092E0B7010E94340FD82FC0E00C0F1D1FD9
:100A1000F601019311936F010894E11CF11CF4E6B7
:100A2000CF16F2E0DF0641F720E5C22E22E0D22EFB
:100A30008601C0E3D0E083EA92E0BE010E94340F59
:100A4000F8018083118221960E5F1F4FC533D105B7
:100A500091F795E3E92EF12CF6010081118183EAEB
:100A600092E0B7010E94340FD82FC0E00C0F1D1F79
:100A7000F601019311936F010894E11CF11CFAE552
:100A8000CF16F2E0DF0641F784E6C82E82E0D82ECA
:100A90008601C0E4D0E083EA92E0BE010E94340FF8
:100AA000F8018083118221960E5F1F4FC534D10556
:100AB00091F705E4E02EF12CF6010081118183EA23
:100AC00092E0B7010E94340FD82FC0E00C0F1D1F19
:100AD000F601019311936F010894E11CF11CFEE6ED
:100AE000CF16F2E0DF0641F71EE6C12E12E0D12E4E
:100AF0008601C0E5D0E083EA92E0BE010E94340F97
:100B0000F8018083118221960E5F1F4FC535D105F4
:100B100091F7B5E5EB2EF12CF6010081118183EA06
:100B200092E0B7010E94340FD82FC0E00C0F1D1FB8
:100B3000F601019311936F010894E11CF11CF8E791
:100B4000CF16F2E0DF0641F7A8E7CA2EA2E0DA2EC0
:100B50008601C0E6D0E083EA92E0BE010E94340F35
:100B6000F8018083118221960E5F1F4FC536D10593
:100B700091F7F5E6EF2EF12CF6010081118183EA61
:100B800092E0B7010E94340FD82FC0E00C0F1D1F58
:100B9000F601019311936F010894E11CF11CF2E836
:100BA000CF16F2E0DF0641F7DF91CF911F910F9151
:100BB000FF90EF90DF90CF900895EF92FF920F9308
:100BC0001F93CF93DF9316E4E12E12E0F12EE7019D
:100BD00000E110E083EA92E0B80148810E943B0FF7
:100BE00022960F5F1F4F82E0C035D80799F7C5E105
:100BF000D0E0F701418183EA92E0BE010E943B0F01
:100C000082E090E0E80EF91E219690E5E91692E068
:100C1000F90679F7BAE5EB2EB2E0FB2EE70100E228
:100C200010E083EA92E0B80148810E943B0F2296CF
:100C30000F5F1F4FE2E0C436DE0799F7C5E2D0E050
:100C4000F701418183EA92E0BE010E943B0F82E0FE
:100C500090E0E80EF91E219694E6E91692E0F90676
:100C600079F7A0E5EA2EA2E0FA2EE70100E310E012
:100C700083EA92E0B80148810E943B0F22960F5F01
:100C80001F4FE2E0CA35DE0799F7C5E3D0E0F70170
:100C9000418183EA92E0BE010E943B0F82E090E036
:100CA000E80EF91E21969AE5E91692E0F90679F721
:100CB000F4E6EF2EF2E0FF2EE70100E410E083EA15
:100CC00092E0B80148810E943B0F22960F5F1F4FB0
:100CD000E2E0CE36DE0799F7C5E4D0E0F7014181C6
:100CE00083EA92E0BE010E943B0F82E090E0E80EB2
:100CF000F91E21969EE6E91692E0F90679F7EEE6EE
:100D0000EE2EE2E0FE2EE70100E510E083EA92E03D
:100D1000B80148810E943B0F22960F5F1F4FE2E00F
:100D2000C837DE0799F7C5E5D0E0F701418183EACE
:100D300092E0BE010E943B0F82E090E0E80EF91EB7
:100D4000219698E7E91692E0F90679F778E7E72E19
:100D500072E0F72EE70100E610E083EA92E0B801C6
:100D600048810E943B0F22960F5F1F4FE2E0C2387E
:100D7000DE0799F7C5E6D0E0F701418183EA92E00A
:100D8000BE010E943B0F82E090E0E80EF91E219622
:100D900092E8E91692E0F90679F7DF91CF911F9179
:100DA0000F91FF90EF9008958AE060E00E94EE10AE
:100DB0008BE061E00E94EE108CE061E00E94EE109A
:100DC0008DE060E00E94EE1008958AE061E00E94EC
:100DD000EE108BE060E00E94EE108CE060E00E947C
:100DE000EE108DE061E00E94EE1008958AE060E070
:100DF0000E94EE108BE061E00E94EE108CE061E05A
:100E00000E94EE108DE061E00E94EE1008958AE0ED
:100E100061E00E94EE108BE061E00E94EE108CE039
:100E200060E00E94EE108DE061E00E94EE100895F7
:100E300004C00E9465010E9407078091970290916B
:100E400098028E349105A9F304C00E9465010E94A6
:100E500007078091990290919A028E349105A9F327
:100E600004C00E9465010E94F60680919F02909145
:100E7000A0028E349105A9F3089504C00E94650173
:100E80000E94F60680919F029091A0028E349105F7
:100E9000A9F304C00E9465010E94F60680919D029C
:100EA00090919E0282349105A9F304C00E946501CD
:100EB0000E94070780919702909198028E349105C5
:100EC000A9F308958AE060E00E94EE108BE061E0F3
:100ED0000E94EE108CE060E00E94EE108DE061E078
:100EE0000E94EE100895AF92BF92CF92DF92EF92E0
:100EF000FF920F931F9300D000D0AA2797FDA095D3
:100F0000BA2F2FEF30E040E050E0EDB7FEB721837D
:100F1000328343835483BC01CD0124E630E040E0BA
:100F200050E0EE24FF248701AA24BB2465010E941F
:100F3000A8129B01AC010F900F900F900F9089E0C9
:100F4000B9010E944F101F910F91FF90EF90DF9019
:100F5000CF90BF90AF9008950F931F9388E060E00B
:100F60000E94AF108AE061E00E94AF108BE061E068
:100F70000E94AF108CE061E00E94AF108DE061E054
:100F80000E94AF1086E060E00E94AF1087E060E052
:100F90000E94AF1088E060E00E94AF1084E190E012
:100FA000909379028093780290937B0280937A02E7
:100FB00090937D0280937C0290937F0280937E02C7
:100FC000909381028093800280E090E00E947307FA
:100FD00002E812E0C80160E142E020E00E94450E14
:100FE000C80163E171E00E9425010E9462071F9120
:100FF0000F9108954F925F926F927F928F929F927E
:10100000AF92BF92CF92DF92EF92FF920F931F9316
:10101000CF93DF930E94AC0482E892E00E943D0EE1
:1010200082E892E06AE171E00E94250182E892E0A4
:1010300060E041E00E940E0E82E892E067E271E01B
:101040000E94250180E090E00E9473070E940C033B
:1010500087E00E944211892BC9F384E690E09093C7
:10106000A2028093A10282E892E00E943D0E82E8F3
:1010700092E06BE371E00E94A512EE24FF24CC24E1
:10108000DD248824BB24AA249924E0E56E2E712C4B
:101090007CE3472E512C04C0BB24B39401C0AA2486
:1010A0000E94650180919B0290919C028E34910573
:1010B00059F18EE190E00E9473070E94620782E07E
:1010C00090E00E9462029C0180914A0290914B0242
:1010D00028173907C8F080915E0290915F022817A7
:1010E000390708F42BC280915402909155022817B9
:1010F000390750F0809168029091690228173907EA
:1011000008F434C24BC2FFCF82E892E060E040E0D6
:101110000E940E0E82E0E816F104F1F083E0E8167A
:10112000F1042CF481E0E816F10401F51AC08CE317
:10113000E816F10429F080E5E816F104B9F405C0D9
:1011400082E892E06CE471E004C082E892E06AE533
:1011500071E00E9425010CC082E892E068E671E02F
:10116000F8CF82E892E06FE771E0F3CF0E940C03C2
:101170008091A1029091A2020E947307209199028E
:1011800030919A022E34310509F08DC180919D0273
:1011900090919E028E34910509F085C180913202B2
:1011A0009091330261E070E00E948C00EC0180912C
:1011B00036029091370263E070E00E948C009E013D
:1011C000281B390B37FF03C0309521953F4F2A303C
:1011D00031051CF40E94620708C0C817D9071CF427
:1011E0000E94F60602C00E94070780919702909124
:1011F00098028E34910509F040C080919F02909131
:10120000A0028E349105C9F580919B0290919C02B9
:101210008E34910591F581E0C816D10429F082E061
:10122000C816D10451F515C080912E0290912F025D
:10123000892B19F00E94180702C00E943D07EE2476
:10124000FF24CC24DD248824BB24B394AA24A394B3
:1012500014C080912E0290912F02892B19F00E94C8
:101260003D0702C00E941807EE24FF24CC24DD2491
:10127000BB24B394AA24A394992480913202909120
:10128000330261E070E00E948C008C018091360294
:101290009091370263E070E00E948C009801281B57
:1012A000390BC80164E170E00E949A1437FF03C053
:1012B000309521953F4F261737070CF0F1CE20913E
:1012C0009702309198022E34310509F4E9CE8091CD
:1012D0009F029091A0028E34910509F4E1CE27344B
:1012E000310519F0882009F49FC0809199029091EE
:1012F0009A028234910551F48091A1029091A20248
:101300000E9473078824BB24B3948EC02734310510
:1013100009F073C0BB2009F070C00E94070702C02B
:101320000E9441018091780290917902969587956B
:101330002091460230914702281B390B80913002E0
:10134000909131022817390758F389E190E00E9403
:1013500073070E94F60602C00E948C0280917802F8
:10136000909179022091460230914702820F931F9B
:1013700020913002309131022817390768F380E05C
:1013800090E00E9462029C01809146029091470287
:101390002817390788F080915A0290915B0228172C
:1013A000390750F080915002909151022817390767
:1013B00018F48824839407C0BB24B39404C00E940B
:1013C00065010E94070780917802909179029695B5
:1013D00087952091460230914702281B390B809156
:1013E0003002909131022817390748F38091A10209
:1013F0009091A2020E94730717C08820A1F0C11427
:10140000D10489F482E892E00E943D0E8091A1020D
:101410009091A2020E94730741E0E42EF12C31E08A
:10142000C32ED12C8824BB2420919F023091A0028E
:101430002734310531F0992009F432CE2E343105AC
:1014400039F080919D0290919E028234910549F479
:101450008091A1029091A2020E947307AA24A394F2
:1014600020C02734310529F4AA2019F49924939433
:1014700017CE992009F413CEC114D10409F00FCE70
:1014800082E892E00E943D0E8091A1029091A2021A
:101490000E94730722E0E22EF12C92E0C92ED12C9B
:1014A000AA249924FDCD2234310509F580919D02AD
:1014B00090919E0282349105D1F4809132029091F4
:1014C000330261E070E00E948C008C018091360252
:1014D0009091370263E070E00E948C0008171907B2
:1014E0001CF40E940707DCCD0E94F606D9CD80913E
:1014F0009D0290919E028234910559F40E94E50666
:1015000080919702909198028E34910509F0C8CD90
:10151000C3CD80919702909198028234910509F091
:10152000BFCD0E94D40680919D0290919E028E3480
:10153000910509F0B5CDAA24A394B2CD82E892E03A
:101540000E943D0E82E892E060E040E00E940E0EB4
:1015500082E892E064E971E00E9425017092A202A3
:101560006092A10280E5E82EF12CCECD82E892E0D7
:101570000E943D0E82E892E060E040E00E940E0E84
:1015800082E892E068EA71E00E9425015092A2028E
:101590004092A1020CE3E02EF12CB6CD82E892E05D
:1015A0000E943D0E82E892E06BEB71E00E94250103
:1015B00082E892E060E041E00E940E0E82E892E054
:1015C0006CEC71E00E94250180E090E00E947307BE
:1015D0009ACD0E94AC0489E190E00E9473070E94BA
:1015E0000C03FDCFEF92FF920F931F93CF93DF93E6
:1015F00082E892E00E943D0E82E892E066ED71E0A2
:101600000E94250182E892E060E041E00E940E0E17
:1016100082E892E067E271E00E94250187E00E9483
:101620004211892BD9F389E190E00E9473070E944F
:101630008C020E948C020E948C0282E892E00E943E
:101640003D0E82E892E063EE71E00E942501C0E069
:10165000D0E0FE01E05DFD4F00811181B80180E026
:1016600090E00E948A1320E030E040E85EE30E94B0
:1016700018140E945E139B01FE01E858FD4F718310
:101680006083FE01EA5BFD4F200F311F3183208311
:101690002296CA30D105E9F682E892E00E943D0E1A
:1016A00082E892E065EE71E00E94250102C00E948E
:1016B0008C0280917C0290917D0220914A023091AF
:1016C0004B02820F931F209134023091350228176C
:1016D000390768F382E892E00E943D0E82E892E0CA
:1016E00067EE71E00E9425010E94B60280913A02E5
:1016F00090913B0290935B0280935A0280913C024E
:1017000090913D0290935D0280935C0280913E0235
:1017100090913F0290935F0280935E02809140021D
:101720009091410290936102809360028091420205
:1017300090914302909363028093620282E892E068
:101740000E943D0E82E892E069EE71E00E94250160
:10175000FAE5EF2EF2E0FF2E06E412E0C8E7D2E051
:10176000D8012D913C91D701ED91FD917D01E21BB6
:10177000F30B88819981281B390BCF0162E070E05F
:101780000E949A14260F371FD8012D933D938D0187
:10179000CF0163E070E00E949A1469937993B4E6F4
:1017A000EB16B2E0FB06E1F602C00E948C028091CB
:1017B0007C0290917D0220914A0230914B02820F6F
:1017C000931F20913402309135022817390768F3AE
:1017D00082E892E00E943D0E82E892E06BEE71E0BA
:1017E0000E9425010E94B60280913A0290913B022C
:1017F000909351028093500280913C0290913D025F
:10180000909353028093520280913E0290913F0246
:10181000909355028093540280914002909141022E
:101820009093570280935602809142029091430216
:10183000909359028093580282E892E00E943D0EF4
:1018400082E892E06DEE71E00E94250102C00E94E4
:101850008C0280917C0290917D0220914A0230910D
:101860004B02820F931F20913402309135022817CA
:10187000390768F382E892E00E943D0E82E892E028
:101880006FEE71E00E9425010E94B60280913A023B
:1018900090913B02909365028093640280913C0298
:1018A00090913D02909367028093660280913E0280
:1018B00090913F0290936902809368028091400268
:1018C0009091410290936B0280936A028091420250
:1018D0009091430290936D0280936C0282E892E0B3
:1018E0000E943D0E82E892E061EF71E00E942501C6
:1018F00002C00E948C0280917C0290917D02209116
:101900004A0230914B02820F931F20913402309192
:1019100035022817390768F382E892E00E943D0EED
:1019200082E892E063EF71E00E9425010E94B60216
:1019300080913A0290913B0290936F0280936E02E5
:1019400080913C0290913D029093710280937002CD
:1019500080913E0290913F029093730280937202B5
:10196000809140029091410290937502809374029D
:101970008091420290914302909377028093760285
:1019800082E892E00E943D0E82E892E065EF71E00D
:101990000E94250110925B0210925A0210925D0281
:1019A00010925C021092530210925202109267023F
:1019B0001092660210925502109254021092610227
:1019C00010926002109257021092560210926B020F
:1019D00010926A0210926302109262020E94DD0568
:1019E00080E090E00E94730782E892E00E943D0E42
:1019F00082E892E067EF71E00E942501FFCF86E068
:101A00000E944211019779F488E00E94421190935C
:101A10002F0280932E02019719F40E94F20A05C04A
:101A20000E94E90A02C00E94FA0782E892E00E943E
:101A30003D0E82E892E062E072E00E94250182E8B9
:101A400092E060E041E00E940E0E82E892E066E1E2
:101A500072E00E94250168EE73E080E090E00E9451
:101A60008F0F82E892E060E041E00E940E0E82E873
:101A700092E069E172E00E94250164E670E080E096
:101A800090E00E948F0FDBCF0F931F938C01FC011E
:101A9000868160E00E94EE1081E090E00E94E80FF5
:101AA000F801868161E00E94EE1081E090E00E94E2
:101AB000E80FF801868160E00E94EE1084E690E075
:101AC0000E94E80F1F910F910895CF92DF92EF923D
:101AD000FF920F931F93CF93DF93D82EC92E282FF9
:101AE000392FC9018C01C0E0D0E0E62EFF24F801B7
:101AF000878161E00E94AF10B7010C2E02C075957E
:101B000067950A94E2F76170F80187810E94EE10F0
:101B100021960F5F1F4FC830D10549F78D2D9C2DA1
:101B20000E94440DDF91CF911F910F91FF90EF9094
:101B3000DF90CF900895CF92DF92EF92FF920F93B4
:101B40001F93CF93DF93D82EC92E282F392FC90189
:101B50008C01C0E0D0E0E62EFF24F801878161E02F
:101B60000E94AF10B7010C2E02C0759567950A94BC
:101B7000E2F76170F80187810E94EE1021960F5FF5
:101B80001F4FC430D10549F78D2D9C2D0E94440D67
:101B9000DF91CF911F910F91FF90EF90DF90CF9049
:101BA00008951F93CF93DF93EC01162F8C81642F40
:101BB0000E94EE108D818F3F19F060E00E94EE10C0
:101BC0008F8584FF05C0CE01612F0E94650D0EC078
:101BD000612F70E084E0759567958A95E1F7CE01F5
:101BE0000E949B0DCE01612F0E949B0DDF91CF9132
:101BF0001F91089541E00E94D10D81E090E0089589
:101C000040E00E94D10D0895FC016089862F846018
:101C1000808B6C60CF010E94000E0895DF93CF93FC
:101C2000CDB7DEB728970FB6F894DEBF0FBECDBF95
:101C30009C01FE013196A5E2B2E088E00D90019290
:101C40008150E1F7F9018389481710F0482F41507E
:101C5000E42FF0E0EE0FFF1FEC0FFD1F8181680FF6
:101C60006068C9010E94000E28960FB6F894DEBF86
:101C70000FBECDBFCF91DF91089561E00E94000EAD
:101C800080ED97E00E94E80F0895CF93DF93EC0179
:101C9000423018F08F8588608F874B8B1C8A2223F7
:101CA00029F0413019F48F8584608F8780E593ECAB
:101CB0000E94E80F8C8160E00E94EE108E8160E04F
:101CC0000E94EE108D818F3F19F060E00E94EE10AF
:101CD0006F8564FD1DC0CE0163E00E949B0D84E909
:101CE00091E10E94E80FCE0163E00E949B0D84E920
:101CF00091E10E94E80FCE0163E00E949B0D86E90E
:101D000090E00E94E80FCE0162E00E949B0D16C099
:101D10006062CE010E94000E84E991E10E94E80F0A
:101D20006F856062CE010E94000E86E990E00E94FD
:101D3000E80F6F856062CE010E94000E6F856062C1
:101D4000CE010E94000E84E0888BCE010E94040E1A
:101D5000CE010E943D0E82E0898BCE0166E00E949A
:101D6000000EDF91CF9108956F927F928F92AF9284
:101D7000CF92EF920F931F93DF93CF93CDB7DEB740
:101D80003C01162F842FF301448325830683E782C9
:101D9000C086A18682869D8593879E8594879F8530
:101DA00095879889968761E00E94AF10F30185813D
:101DB0008F3F19F061E00E94AF10F301868161E06E
:101DC0000E94AF10112319F0F301178603C080E1C0
:101DD000F3018787C30160E141E020E00E94450EE6
:101DE000CF91DF911F910F91EF90CF90AF908F9097
:101DF0007F906F9008958F92AF92CF92EF920F9352
:101E00001F93CF93DF93DC01362F542F722F102FA7
:101E1000AE2C8C2C13961C921E92129781E292E0AB
:101E200011969C938E9300D000D0EDB7FEB73196FB
:101E3000CDB7DEB71982118212821382CD0161E023
:101E4000432F2FEF052FE72EC12E0E94B40E0F90C7
:101E50000F900F900F90DF91CF911F910F91EF9006
:101E6000CF90AF908F900895F999FECF72BD61BD6C
:101E7000F89A80B50895F999FECF1FBA72BD61BD79
:101E800040BD0FB6F894FA9AF99A0FBE08951F92C2
:101E90000F920FB60F9211242F933F938F939F931E
:101EA000AF93BF938091A8029091A902A091AA023A
:101EB000B091AB023091AC020196A11DB11D232F50
:101EC0002D5F2D3720F02D570196A11DB11D2093B8
:101ED000AC028093A8029093A902A093AA02B093A7
:101EE000AB028091A4029091A502A091A602B091AC
:101EF000A7020196A11DB11D8093A4029093A50293
:101F0000A093A602B093A702BF91AF919F918F912A
:101F10003F912F910F900FBE0F901F9018959B012E
:101F2000AC017FB7F8948091A4029091A502A09192
:101F3000A602B091A70266B5A89B05C06F3F19F035
:101F40000196A11DB11D7FBFBA2FA92F982F8827F9
:101F5000860F911DA11DB11D62E0880F991FAA1F58
:101F6000BB1F6A95D1F7BC012DC0FFB7F8948091D3
:101F7000A4029091A502A091A602B091A702E6B595
:101F8000A89B05C0EF3F19F00196A11DB11DFFBF31
:101F9000BA2FA92F982F88278E0F911DA11DB11D33
:101FA000E2E0880F991FAA1FBB1FEA95D1F7861B95
:101FB000970B885E9340C8F221503040404050401B
:101FC00068517C4F211531054105510571F6089581
:101FD000019739F0880F991F880F991F0297019771
:101FE000F1F70895789484B5826084BD84B58160EA
:101FF00084BD85B5826085BD85B5816085BDEEE611
:10200000F0E0808181608083E1E8F0E010828081EF
:1020100082608083808181608083E0E8F0E080815D
:1020200081608083E1EBF0E0808184608083E0EB7D
:10203000F0E0808181608083EAE7F0E08081846065
:1020400080838081826080838081816080838081C1
:10205000806880831092C1000895982F8E3008F018
:102060009E50977080911C028295880F880F807C0B
:10207000892B80937C0080917A00806480937A0021
:1020800080917A0086FDFCCF209178004091790004
:10209000942F80E030E0282B392BC90108951F933D
:1020A000CF93DF93182FEB0161E00E94AF102097D0
:1020B00009F44AC0CF3FD10509F449C0E12FF0E04F
:1020C000E255FF4F84918330C1F0843028F4813091
:1020D00051F08230B1F50CC0863019F1873049F1EA
:1020E000843079F514C084B5806884BDC7BD33C021
:1020F00084B5806284BDC8BD2EC080918000806898
:1021000080938000D0938900C093880024C0809180
:102110008000806280938000D0938B00C0938A00FF
:102120001AC08091B00080688093B000C093B30063
:1021300012C08091B00080628093B000C093B40060
:102140000AC0C038D1051CF4812F60E002C0812F85
:1021500061E00E94EE10DF91CF911F910895CF931F
:10216000DF93482F50E0CA0186569F4FFC013491FF
:102170004A575F4FFA018491882369F190E0880FF4
:10218000991FFC01E859FF4FA591B491FC01EE584D
:10219000FF4FC591D491662351F42FB7F8948C91D9
:1021A000932F909589238C93888189230BC062306B
:1021B00061F42FB7F8948C91932F909589238C9389
:1021C0008881832B88832FBF06C09FB7F8948C919A
:1021D000832B8C939FBFDF91CF910895482F50E0C0
:1021E000CA0182559F4FFC012491CA0186569F4F18
:1021F000FC0194914A575F4FFA013491332309F45B
:1022000040C0222351F1233071F0243028F42130D2
:10221000A1F0223011F514C02630B1F02730C1F002
:102220002430D9F404C0809180008F7703C080915E
:1022300080008F7D8093800010C084B58F7702C0AE
:1022400084B58F7D84BD09C08091B0008F7703C0B5
:102250008091B0008F7D8093B000E32FF0E0EE0F0F
:10226000FF1FEE58FF4FA591B4912FB7F894662346
:1022700021F48C919095892302C08C91892B8C93A9
:102280002FBF0895682F70E0CB0182559F4FFC014E
:102290002491CB0186569F4FFC0144916A577F4F92
:1022A000FB019491992319F420E030E03CC02223F3
:1022B00051F1233071F0243028F42130A1F0223084
:1022C00011F514C02630B1F02730C1F02430D9F414
:1022D00004C0809180008F7703C0809180008F7D43
:1022E0008093800010C084B58F7702C084B58F7D45
:1022F00084BD09C08091B0008F7703C08091B00089
:102300008F7D8093B000892F90E0880F991F8458AB
:102310009F4FFC01A591B4918C9120E030E0842383
:1023200011F021E030E0C9010895CF93DF930E94BE
:10233000F20F0E94AC07C0E0D0E00E94FF0C209793
:10234000E1F30E940000F9CFCF92DF92EF92FF926B
:102350000F931F93CF93DF937C016B018A01C0E041
:10236000D0E00FC0D6016D916D01D701ED91FC91C8
:102370000190F081E02DC7010995C80FD91F0150C8
:1023800010400115110571F7CE01DF91CF911F911A
:102390000F91FF90EF90DF90CF9008954F925F9252
:1023A0007F928F929F92AF92BF92CF92DF92EF92E5
:1023B000FF920F931F93DF93CF93CDB7DEB7A19713
:1023C0000FB6F894DEBF0FBECDBF2C01742ECB012B
:1023D000223008F42AE019A231E2C32ED12CCC0E0F
:1023E000DD1E822E9924AA24BB24672D752FA501FA
:1023F00094010E94AD1479018A01C801B701A501B9
:1024000094010E947B14472D461B0894C108D108F3
:102410004A3014F4405D01C0495CF6014083E11488
:10242000F1040105110521F07E2C5F2DC801DDCFDF
:10243000C201B6010E942501A1960FB6F894DEBF35
:102440000FBECDBFCF91DF911F910F91FF90EF9005
:10245000DF90CF90BF90AF909F908F907F905F90D4
:102460004F900895DC012115310541F4ED91FC9167
:102470000190F081E02D642F099508950E94CE11FE
:102480000895EF92FF920F931F939A017B0100E052
:1024900010E0B801A7010E9432121F910F91FF9026
:1024A000EF900895CF92DF92EF92FF920F931F93D8
:1024B000CF93DF93EC016A017B012115310541F4D3
:1024C000E881F9810190F081E02D642F09951FC00A
:1024D0002A303105D1F477FF17C0E881F9810190E6
:1024E000F081E02D6DE209958C0144275527BA0152
:1024F0004C195D096E097F09CE012AE00E94CE11B8
:102500009801280F391F04C02AE00E94CE119C01B7
:10251000C901DF91CF911F910F91FF90EF90DF9054
:10252000CF900895EF92FF920F931F937B019A0132
:102530000027F7FC0095102FB801A7010E94521246
:102540001F910F91FF90EF9008950E94250108952B
:102550002F923F924F925F926F927F928F929F92B3
:10256000AF92BF92CF92DF92EF92FF920F931F93A1
:10257000DF93CF93CDB7DEB73B014C0119012A01A0
:102580006D897E898F89988D6A197B098C099D09CF
:10259000621A730A840A950AA40193010E947B14AB
:1025A000E218F30804091509A80197010E94CF1445
:1025B0002A0D3B1D4C1D5D1DB901CA01CF91DF9154
:1025C0001F910F91FF90EF90DF90CF90BF90AF9051
:1025D0009F908F907F906F905F904F903F902F9043
:1025E00008950CD0EBC0E3D040F0DAD030F021F405
:1025F0005F3F19F0CCC0511115C1CFC0F0D098F396
:102600009923C9F35523B1F3951B550BBB27AA2773
:1026100062177307840738F09F5F5F4F220F331FE5
:10262000441FAA1FA9F333D00E2E3AF0E0E830D0B1
:1026300091505040E695001CCAF729D0FE2F27D0B4
:10264000660F771F881FBB1F261737074807AB0782
:10265000B0E809F0BB0B802DBF01FF2793585F4FF7
:102660002AF09E3F510568F092C0DCC05F3FECF35A
:10267000983EDCF3869577956795B795F7959F5FBC
:10268000C9F7880F911D9695879597F90895E1E010
:10269000660F771F881FBB1F621773078407BA076F
:1026A00020F0621B730B840BBA0BEE1F88F7E095CA
:1026B000089504D06894B111B5C0089598D088F0F9
:1026C0009F5790F0B92F9927B751A0F0D1F0660F1E
:1026D000771F881F991F1AF0BA95C9F712C0B13039
:1026E00081F09FD0B1E008959CC0672F782F882794
:1026F000B85F39F0B93FCCF3869577956795B39578
:10270000D9F73EF490958095709561957F4F8F4FE6
:102710009F4F0895E89409C097FB3EF490958095EB
:10272000709561957F4F8F4F9F4F9923A9F0F92F97
:1027300096E9BB279395F695879577956795B79515
:10274000F111F8CFFAF4BB0F11F460FF1BC06F5FFB
:102750007F4F8F4F9F4F16C0882311F096E911C00D
:10276000772321F09EE8872F762F05C0662371F02E
:1027700096E8862F70E060E02AF09A95660F771F42
:10278000881FDAF7880F9695879597F9089597F936
:102790009F6780E870E060E008959FEF80EC089507
:1027A00000240A9416161706180609060895002430
:1027B0000A9412161306140605060895092E0394AA
:1027C000000C11F4882352F0BB0F40F4BF2B11F41E
:1027D00060FF04C06F5F7F4F8F4F9F4F089557FD7D
:1027E0009058440F551F59F05F3F71F04795880F7F
:1027F00097FB991F61F09F3F79F087950895121616
:1028000013061406551FF2CF4695F1DF08C01616C1
:1028100017061806991FF1CF869571056105089472
:102820000895E894BB2766277727CB0197F9089589
:102830000BD0C4CFB5DF28F0BADF18F0952309F02C
:10284000A6CFABCF1124EECFCADFA0F3959FD1F373
:10285000950F50E0551F629FF001729FBB27F00D4E
:10286000B11D639FAA27F00DB11DAA1F649F6627A3
:10287000B00DA11D661F829F2227B00DA11D621FF2
:10288000739FB00DA11D621F839FA00D611D221FAC
:10289000749F3327A00D611D231F849F600D211D90
:1028A000822F762F6A2F11249F5750408AF0E1F033
:1028B00088234AF0EE0FFF1FBB1F661F771F881F7C
:1028C00091505040A9F79E3F510570F060CFAACFBC
:1028D0005F3FECF3983EDCF3869577956795B79567
:1028E000F795E7959F5FC1F7FE2B880F911D969591
:1028F000879597F90895629FD001739FF001829F99
:10290000E00DF11D649FE00DF11D929FF00D839F7E
:10291000F00D749FF00D659FF00D9927729FB00D1B
:10292000E11DF91F639FB00DE11DF91FBD01CF012E
:102930001124089597FB092E07260AD077FD04D0AD
:1029400049D006D000201AF4709561957F4F089504
:10295000F6F7909581959F4F0895A1E21A2EAA1B34
:10296000BB1BFD010DC0AA1FBB1FEE1FFF1FA2173F
:10297000B307E407F50720F0A21BB30BE40BF50B3C
:10298000661F771F881F991F1A9469F760957095C5
:10299000809590959B01AC01BD01CF01089597FBF7
:1029A000092E05260ED057FD04D0D7DF0AD0001C13
:1029B00038F450954095309521953F4F4F4F5F4FDC
:1029C0000895F6F790958095709561957F4F8F4F9C
:1029D0009F4F0895AA1BBB1B51E107C0AA1FBB1F35
:1029E000A617B70710F0A61BB70B881F991F5A959B
:1029F000A9F780959095BC01CD010895EE0FFF1FBA
:0C2A00000590F491E02D0994F894FFCFAC
:102A0C00204E3A002E3000310020003200330034CA
:102A1C000035007265616479210073696775652002
:102A2C0070697374613A0070726563696F6E6520CA
:102A3C00626F746F6E207369672E00426F746F6ED5
:102A4C002050726573696F6E61646F0056656C6FB0
:102A5C006369646164203630250056656C6F636968
:102A6C006461642038302500477269732061204C02
:102A7C006120497A71756965726461203A44004736
:102A8C007269732061204C612044657265636861D2
:102A9C0020443A0056657264652038302520506F0A
:102AAC00726369656E746F00526F6A6F20363025E1
:102ABC0020506F726369656E746F00426C616E6357
:102ACC006F20656E20533321212120004164696FF2
:102ADC007320203A500043616C6962726163696FC4
:102AEC006E3A006E004E007600560067004700728A
:102AFC00005200620042007465726D696E65203A86
:102B0C00290070726F6772616D612066696E616C0D
:102B1C00697A61646F003A29003B290001000000CA
:0E2B2C0000FA0DA41100004000140054000037
:00000001FF
